{
  "abi": [
    {
      "inputs": [],
      "name": "currentInvestment",
      "outputs": [
        {
          "internalType": "uint256",
          "name": "",
          "type": "uint256"
        }
      ],
      "stateMutability": "view",
      "type": "function"
    },
    {
      "inputs": [],
      "name": "currentInvestor",
      "outputs": [
        {
          "internalType": "address",
          "name": "",
          "type": "address"
        }
      ],
      "stateMutability": "view",
      "type": "function"
    }
  ],
  "bytecode": {
    "object": "0x60806040526000600155348015601457600080fd5b5060b1806100236000396000f3fe6080604052348015600f57600080fd5b506004361060325760003560e01c8063523e27d4146037578063b2667cd0146066575b600080fd5b6000546049906001600160a01b031681565b6040516001600160a01b0390911681526020015b60405180910390f35b606e60015481565b604051908152602001605d56fea264697066735822122090e5125a7093de63a12554756fcec0879fe142f980a9a1126f649e121a2ed9a364736f6c634300080a0033",
    "linkReferences": {}
  }
}