{
  "abi": [
    {
      "inputs": [],
      "stateMutability": "nonpayable",
      "type": "constructor"
    },
    {
      "inputs": [],
      "name": "MINIMUM_INVESTMENT",
      "outputs": [
        {
          "internalType": "uint256",
          "name": "",
          "type": "uint256"
        }
      ],
      "stateMutability": "view",
      "type": "function"
    },
    {
      "inputs": [
        {
          "internalType": "address",
          "name": "",
          "type": "address"
        }
      ],
      "name": "balances",
      "outputs": [
        {
          "internalType": "uint256",
          "name": "",
          "type": "uint256"
        }
      ],
      "stateMutability": "view",
      "type": "function"
    },
    {
      "inputs": [
        {
          "internalType": "uint256",
          "name": "",
          "type": "uint256"
        }
      ],
      "name": "investors",
      "outputs": [
        {
          "internalType": "address",
          "name": "",
          "type": "address"
        }
      ],
      "stateMutability": "view",
      "type": "function"
    },
    {
      "inputs": [],
      "name": "withdraw",
      "outputs": [],
      "stateMutability": "nonpayable",
      "type": "function"
    },
    {
      "stateMutability": "payable",
      "type": "receive"
    }
  ],
  "bytecode": {
    "object": "0x608060405234801561001057600080fd5b50600080546001810182559080527f290decd9548b62a8d60345a988386fc84ba6bc95484008f6362f93160ef3e5630180546001600160a01b0319163317905561033d8061005f6000396000f3fe6080604052600436106100435760003560e01c806327e235e3146101245780633ccfd60b146101645780633feb5f2b1461017b5780638a4660fe146101b357600080fd5b3661011f5766038d7ea4c6800034101561005c57600080fd5b6000805461006a9034610253565b905060005b6000548110156100dc57816001600080848154811061009057610090610275565b60009182526020808320909101546001600160a01b03168352820192909252604001812080549091906100c490849061028b565b909155508190506100d4816102a3565b91505061006f565b5050600080546001810182559080527f290decd9548b62a8d60345a988386fc84ba6bc95484008f6362f93160ef3e5630180546001600160a01b03191633179055005b600080fd5b34801561013057600080fd5b5061015161013f3660046102be565b60016020526000908152604090205481565b6040519081526020015b60405180910390f35b34801561017057600080fd5b506101796101ce565b005b34801561018757600080fd5b5061019b6101963660046102ee565b610213565b6040516001600160a01b03909116815260200161015b565b3480156101bf57600080fd5b5061015166038d7ea4c6800081565b33600081815260016020526040808220805490839055905190929183156108fc02918491818181858888f1935050505015801561020f573d6000803e3d6000fd5b5050565b6000818154811061022357600080fd5b6000918252602090912001546001600160a01b0316905081565b634e487b7160e01b600052601160045260246000fd5b60008261027057634e487b7160e01b600052601260045260246000fd5b500490565b634e487b7160e01b600052603260045260246000fd5b6000821982111561029e5761029e61023d565b500190565b60006000198214156102b7576102b761023d565b5060010190565b6000602082840312156102d057600080fd5b81356001600160a01b03811681146102e757600080fd5b9392505050565b60006020828403121561030057600080fd5b503591905056fea26469706673582212202ae707b2d929d30cf4e09ef88f707141a221880d75d973225aa96cdea635b77364736f6c634300080a0033",
    "linkReferences": {}
  }
}