{
  "abi": [
    {
      "inputs": [],
      "name": "currentInvestment",
      "outputs": [
        {
          "internalType": "uint256",
          "name": "",
          "type": "uint256"
        }
      ],
      "stateMutability": "view",
      "type": "function"
    },
    {
      "inputs": [],
      "name": "currentInvestor",
      "outputs": [
        {
          "internalType": "address",
          "name": "",
          "type": "address"
        }
      ],
      "stateMutability": "view",
      "type": "function"
    },
    {
      "stateMutability": "payable",
      "type": "receive"
    }
  ],
  "bytecode": {
    "object": "0x6080604052600060015534801561001557600080fd5b5061019c806100256000396000f3fe60806040526004361061002d5760003560e01c8063523e27d4146100b6578063b2667cd0146100f357600080fd5b366100b1576000600a600154600b6100459190610117565b61004f9190610144565b905080341161005d57600080fd5b600080546001600160a01b03198116331782553460018190556040516001600160a01b0390921692839282156108fc029291818181858888f193505050501580156100ac573d6000803e3d6000fd5b505050005b600080fd5b3480156100c257600080fd5b506000546100d6906001600160a01b031681565b6040516001600160a01b0390911681526020015b60405180910390f35b3480156100ff57600080fd5b5061010960015481565b6040519081526020016100ea565b600081600019048311821515161561013f57634e487b7160e01b600052601160045260246000fd5b500290565b60008261016157634e487b7160e01b600052601260045260246000fd5b50049056fea264697066735822122021daaec6232bf34ca68ade094b44d0918672f7e378ba396fa53850f62feea79464736f6c634300080a0033",
    "linkReferences": {}
  }
}